:020000040000FA
:100000000820FE1F95020000A5020000A7020000C4
:10001000A9020000AB020000AD02000000000000D9
:10002000000000000000000000000000AF0200001F
:10003000B102000000000000B3020000B5020000A1
:10004000B7020000B7020000B7020000B7020000CC
:10005000B7020000B7020000B7020000B7020000BC
:10006000B7020000B7020000B7020000B7020000AC
:10007000B7020000B7020000B7020000B70200009C
:10028000DFF80CD000F01EF800480047EB07000034
:100290000820FE1F084840F2FF1101600748804710
:1002A00007480047FEE7FEE7FEE7FEE7FEE7FEE75A
:1002B000FEE7FEE7FEE7FEE710080540C90700007D
:1002C00081020000064C074D06E0E06840F00103A3
:1002D00094E8070098471034AC42F6D3FFF7D4FFF8
:1002E000100800002008000000BFFEE708B50D4917
:1002F000096AC1F302630C490968D94041F270737D
:100300001944491EB1FBF3F206E0009200BF0099C8
:100310004B1E00930029FAD1011EA0F10100F4D177
:1003200008BD0000004005400000FE1F01460020FF
:1003300009B9C01E0AE000220A804A80CA804A82A7
:100340000A814A818A81CA818A800A8270470000B4
:1003500070B504460D4600BF7CB1012C0DD0022CB7
:100360000BD0032C09D0042C07D0052C05D0062C6B
:1003700003D0072C01D0082C00D104E04FF42071E9
:100380000BA0FFF7B1FF00BF00BF15B1A8B200B1CD
:1003900004E040F2812106A0FFF7A6FF00BF13484A
:1003A000102101FB040630882843308070BD000016
:1003B0002E2E2F2E2E2F2E2E2F2E2E2F2E2E2F2E58
:1003C0002E2F647269766572732F686333325F6CA7
:1003D0006C5F6472697665722F7372632F68633322
:1003E000325F6C6C5F6770696F2E63000C3805407C
:1003F00002E008C8121F08C1002AFAD170477047EE
:10040000BFFFDFFFFFFFFFFFFFFFFFFFFFFFFFFF5C
:10041000FFFFFFFFFFFFFFFFFFFFFFFFFFFFFFFFEC
:10042000FFFFFFFFFFFFFFFFFFFFFFFFFFFFFFFFDC
:10043000FFFFFFFFFFFFFFFFFFFFFFFFFFFFFFFFCC
:10044000FFFFFFFFFFFFFFFFFFFFFFFFFFFFFFFFBC
:10045000FFFFFFFFFFFFFFFFFFFFFFFFFFFFFFFFAC
:100460002DE9F05F05460E4614464FF0000B14B917
:100470006FF0020BF2E000BF7A48008800F0010044
:1004800000B104E040F20F1177A0FFF72DFF00BF8D
:1004900000BF7DB1012D0DD0022D0BD0032D09D051
:1004A000042D07D0052D05D0062D03D0072D01D032
:1004B000082D00D104E04FF488716BA0FFF714FF02
:1004C00000BF00BF16B1B0B200B104E040F211119C
:1004D00065A0FFF709FF00BF00BF208810B120888A
:1004E000012800D104E04FF489715FA0FFF7FCFE02
:1004F00000BF00BF608810B16088022800D104E00E
:1005000040F2131158A0FFF7EFFE00BF00BFA08814
:1005100010B1A088042800D104E04FF48A7152A0E1
:10052000FFF7E2FE00BF00BFE08828B1E088102896
:1005300002D0E088202800D104E040F215114AA042
:10054000FFF7D2FE00BF00BF208918B12089B0F5A7
:10055000804F00D104E04FF48B7143A0FFF7C4FE3D
:1005600000BF00BF608910B16089402800D104E05D
:1005700040F217113CA0FFF7B7FE00BF00BFA089F3
:1005800018B1A089B0F5007F00D104E04FF48C7160
:1005900035A0FFF7A9FE00BF00BFE08918B1E089D0
:1005A000B0F5805F00D104E040F219112EA0FFF7F2
:1005B0009BFE00BF00BF208A18B1208AB0F5806F73
:1005C00000D104E04FF48D7127A0FFF78DFE00BF2E
:1005D00000BF608A18B1608AB0F5004F00D104E016
:1005E00040F21B1120A0FFF77FFE00BF002732E082
:1005F00006F0010050B3208861880843A1880843B1
:10060000E188084361890843A1890843E1890843D7
:10061000218940EA010945F27728608A40EA090900
:1006200048F40048208A40EA090948F480680D48E7
:10063000001D00EB851000EB870ABAF8000020EAE5
:10064000080009EA08010843AAF80000761006B974
:1006500003E0781CC7B2102FCAD300BF5846BDE8CC
:10066000F09F0000FC3B05402E2E2F2E2E2F2E2E0D
:100670002F2E2E2F2E2E2F2E2E2F6472697665721E
:10068000732F686333325F6C6C5F64726976657276
:100690002F7372632F686333325F6C6C5F677069AE
:1006A0006F2E630000B585B06846FFF73FFE00205F
:1006B000ADF800000220ADF802006A460103FFF722
:1006C000CFFE05B000BD000000F0040131B100BF55
:1006D0004AF20151024A118000BF00BF704700007A
:1006E000FC3B054000F0040131B100BF4FF425414F
:1006F000024A118000BF00BF70470000FC3B05406C
:1007000070B5294D2D6805F001051DB1274D284E06
:10071000356002E0274D264E3560274D2D7805F0D7
:10072000070006283CD2DFE800F003080C11151A78
:100730001F4D2D68214E356033E0214D1F4E356031
:100740002FE04FF400451D4E35602AE01C4D1B4E36
:10075000356026E04FF40045184E356021E0164D17
:10076000DA352D68C5F30722134D263DD5F8005123
:100770002B0F114DDA352D6805F00304114DED698D
:100780000DB90F4901E00A4D2968651CB1FBF5F56B
:10079000561C75435E1CB5FBF6F5084E356000E04F
:1007A00000BF00BF70BD0000840601400024F400BB
:1007B0000400FE1F002D3101264005400000FE1FF1
:1007C00000127A000020A84200B5FFF799FF002030
:1007D0000149086000BD000008ED00E0002001E0D4
:1007E00001C1121F002AFBD170470420FFF76CFFE4
:1007F000FFF758FF0420FFF775FF00BF4FF40051CB
:100800000220FFF7A5FD4FF47A70FFF76FFDF5E7C3
:10081000200800000800FE1F00200000DC07000088
:040000050000028174
:00000001FF
